:020000020000FC
:10040000EEEDEBE7DEDDDBD7BEBDBBB77E7D7B77F8
:020000000FC02F
:10002000789400EF07BB0FEF01BB04BB90E02FEE0D
:10003000112728BB36B33F703F3029F41395143095
:10004000B1F3221FF6CF11273F70207F232BF4E05E
:10005000E0E00590021621F0139510314427F9CF06
:10006000412F0E943A000E94DD0036B33F703F30BE
:10007000E1F7DDCF4D30F1F04830F9F0493001F1D2
:100080004A3009F1443011F1453019F1463021F17F
:10009000403029F1413031F1423039F14C3041F1F9
:1000A000473089F14F3091F1433099F14B30A1F154
:1000B0004E30C9F10027F02E63C001E0F02E60C081
:1000C00002E0F02E5DC003E0F02E5AC004E0F02EF6
:1000D00057C005E0F02E54C006E0F02E51C007E0F6
:1000E000F02E4EC008E0F02E4BC009E0F02E48C0C4
:1000F000002755276627772788279927DD27DBBB29
:1001000005BB02BB089506E0D02E09C005E0D02E45
:1001100006C008E0D02E03C007E0D02E00C0ED2CB2
:1001200002E0902F0895933019F0923009F008956D
:100130000E2D063031F0053049F0083061F00730FF
:10014000D1F0569F812D702D94E00895052F060F54
:10015000702F94E008951127603049F0052F06179D
:1001600018F0061B1395FBCF712F94E00895DFEF75
:10017000DABBDBBB0895052F061B702F94E00895B2
:10018000903019F0923059F008955A3090F40AE006
:10019000509F502D0F2D500F5A3058F408956A304B
:1001A00050F40AE0609F602D0F2D600F6A3018F444
:1001B000089591E0089593E00895903041F09130D2
:1001C00031F0923079F0933069F09430B1F0052F2E
:1001D00011270A3018F00A501395FBCF1295102BF7
:1001E00015BB0895062F11270A3018F00A501395F1
:1001F000FBCF1295102B15BB08950E2D053031F055
:100200000630B1F0073011F0083001F0A72FBB27FE
:10021000CC27A43618F0A456C395FBCFAA3018F00B
:10022000AA50B395FBCFB295BA2BB5BBC2BB08950C
:100230000E941D0145BA52BA0895FF27EE27072FE5
:10024000182FFFEF6F2E639400511742E0F7005F05
:10025000184DE0EFE05F085E1340E0F708511C4FD7
:100260005F2E539404561040E0F70C595E2AE0EFDD
:0E027000E05F0A50E8F7065F4E2E402A089520
:00000001FF
